:020000040800F2
:100000000014002085AD0008CDA10008CFA1000894
:10001000D1A10008D3A10008D5A10008000000006C
:10002000000000000000000000000000D7A1000850
:10003000D9A1000800000000DBA10008DDA1000834
:1000400001AE000805AE000809AE00080DAE0008BC
:1000500011AE000815AE000819AE00081DAE00086C
:1000600021AE000825AE000829AE00082DAE00081C
:1000700031AE000835AE000839AE00083DAE0008CC
:1000800041AE000845AE000849AE0008000000007F
:100090000000000000000000000000004DAE00085D
:1000A00051AE000855AE000859AE00085DAE00081C
:1000B000DFA1000865AE000869AE00086DAE00085B
:1000C00071AE000875AE000879AE00087DAE00087C
:1000D00081AE000885AE000889AE00088DAE00082C
:1000E00091AE000895AE000899AE0008000000002F
:1000F0000000000000000000000000000000000000
:1001000000000000000000000000000000000000EF
:1001100000000000000000009DAE0008A1AE000835
:10012000010000221000B1F5803F01D3090C083016
:10013000FF2901D9090A001D102901D30909801CD2
:10014000042900D3401C00B2704730B402000B6891
:10015000924CDFF8A05E04FB03530B600B681B148A
:100160001BB212B253431800B0EBE00010F5005080
:10017000801300B230BC704770B506003000FFF746
:10018000CFFF801F04006000012802DB60000641F1
:1001900002E0600040428640300000B2310009B207
:1001A000320012B241F26C035A43921343F25313DA
:1001B000D21A12B2514345F2B52212EBA13109B263
:1001C0004843801300F6326000B20500D4F1070006
:1001D000012803DBD4F10700054102E02000C01F25
:1001E0008540280000B270BD10B504000121200038
:1001F0000AF052FD10BD10B50400012120000AF0E4
:100200004BFD10BD10B5040020000AF06DF810BDC4
:1002100010B5040020000AF067F810BD7047704761
:10022000F8B5040020680600B020FFF7DDFF0500E8
:10023000002D01D10020AFE040F6B830FFF7DBFF22
:1002400028642C603068A8603068716890FBF1F019
:1002500028617068E860A868E96808186861B06893
:10026000A861B08A2887F08A6887F068E8613069F9
:100270002862308BA88706F21C00C5F89C00F06D40
:10028000C5F8A400C5F8A0000120A8620120C5F8A7
:1002900098004FF4806068626869A968401A40005D
:1002A000FFF7A2FF6864306831690818801C4000BD
:1002B000FFF79AFFA8643069A96C11EB4000001D9C
:1002C000E864306831690818801C4000FFF78CFF33
:1002D00028653069296D11EB4000001D6865DFF865
:1002E000500EA865DFF84C0EE865A8694000FFF7DE
:1002F0007BFF2866A8694000FFF776FF686601204B
:10030000686000200700A86987420DDA781C00B2F7
:1003100046F288414843A969491C90FBF1F0296ED7
:1003200021F817007F1CEEE7A8698000FFF75CFF4B
:10033000A866A8698000FFF757FFE866A8698000F3
:10034000FFF752FF2867A8698000FFF74DFF686735
:10035000A8698000FFF748FFA86728698000FFF7B9
:1003600043FFC5F884000020C5F888002869800094
:10037000FFF73AFF68630220C5F894000220C5F831
:100380008C004FF4FA50C5F890000020C5F8A80082
:100390000120C5F8AC002800F2BD00000D66190070
:1003A00038B504002500286CFFF732FF686CFFF7B2
:1003B00029FFA86CFFF726FF686EFFF723FF286D63
:1003C000FFF720FF286EFFF71DFFA86EFFF71AFF4B
:1003D000E86EFFF717FF286FFFF714FF686FFFF74E
:1003E00011FFA86FFFF70EFFD5F88400FFF70AFF93
:1003F000686BFFF707FF2800FFF704FF31BD2DE909
:10040000F74FD6B0002016905798109056980400D9
:10041000206C8146206A801C4000A16CA268A36CFD
:1004200013EB4202891A4910002202FB0102A06864
:10043000A16C11EB4001A06C0AF053FC206A801CF7
:100440004000216DA268236D13EB4202891A491006
:10045000002202FB0102A068216D11EB4001206D1A
:100460000AF03FFCD4F8AC0000280ED0D4F8A80065
:10047000002801D0022300E0002314F17C0000904A
:10048000A2681099109803F065FFD9F1020010F0EE
:10049000010010EB0909606919EB400960697FF000
:1004A000010101FB00908246D9F1020010F0010029
:1004B00010EB0909A06919EB400010F10209A069CD
:1004C000401C7FF0010101FB009083460020804624
:1004D0006069A168401A80450CDA606C30F9180038
:1004E000A16D31F91810484380132AF8180018F14B
:1004F0000108EDE76069804511DA6069B8EB00003A
:10050000A1680818109931F91000A16D31F918107F
:10051000484380132AF8180018F10108EAE76369D4
:10052000A069421C5946504608F0F1FFBBF8000094
:10053000BBF90010B4F93C20514310EBE130ABF8AB
:10054000000000208046A069401C80450BDA3BF982
:100550001800E16D31F91810484380132BF818008A
:1005600018F10108EFE7A269594651A808F039FFD0
:10057000CDF8049041F6991000900A2342AAA1698F
:1005800051A806F08AFB1F901F98A16988420DD0E0
:1005900000208046A069804508DA206E30F81800F7
:1005A00042A921F8180018F10108F3E76069A16871
:1005B000401A8246606800280DD000208046A0695D
:1005C000804513DA3DA842A931F8181020F8181018
:1005D00018F10108F3E720694000019020690090BC
:1005E000A3693DAA42A9206E06F020FF1022A1694E
:1005F0003DA806F0D3FE4B46A26938A93DA806F0F7
:10060000E7FCD4F8A000D4F89C1051F82000002892
:1006100020D0D4F88C00032808DBD4F8A000D4F84C
:100620009C1051F820008068032813DBD4F8A00048
:10063000D4F89C1051F82000406800280AD1D4F862
:10064000A000D4F89C1051F82000006810F1010FB0
:1006500000F0BD80A36930AA38A9B4F9380003F0CE
:100660003CFEA3692BAA38A9B4F93A0003F035FE81
:100670005FEA4A00616D626C891A4910002202FB30
:100680000102616C606D0AF037FBA068B0EB0A00F4
:100690004000616D11EB4A01109A891A491000223D
:1006A00002FB01021099606D10EB4A000AF024FB76
:1006B000CDF80C90206F0290A0690190A068009086
:1006C000636D2BAA30A9606D08F050F8CDF80C903E
:1006D0000620029035A8019020A80090A368226A05
:1006E000E169606D04F02DFD20980600BDF9D4008D
:1006F000ADF8440001208046B8F1060F6CDABDF970
:10070000D40046F6CD414843C01335A931F918103D
:10071000884259DA20A850F82800D6EB400000287B
:1007200005D520A850F82800B6EB400004E020A82A
:1007300050F82800D6EB4000032841DB20A850F8F1
:10074000280003214843801B002806D520A850F824
:100750002800032101FB106005E020A850F82800C4
:1007600003214843801B04282ADB20A850F82800D6
:10077000D6EB8000002805D520A850F82800B6EB5D
:10078000800004E020A850F82800D6EB800005285F
:1007900016DB20A850F8280005214843801B0028BC
:1007A00006D520A850F82800052101FB106005E0BF
:1007B00020A850F8280005214843801B062803DAAA
:1007C00020A850F82800060018F1010894E700203E
:1007D00006000020ADF844005FEA4A00E16C626C5C
:1007E000891A4910002202FB0102616CE06C0AF0D8
:1007F00083FAA068B0EB0A004000E16C11EB4A01FB
:10080000109A891A4910002202FB01021099E06C2B
:1008100010EB4A000AF070FACDF80890606F019072
:10082000A0690090A368E26C38A9E06C08F096F823
:10083000A168E06C03F008FF8346D4F8A00001280B
:100840001CD0012E1ADB0FFA8BFB5FF08050BDF934
:100850004410BDF9442051430904C91309B246F2BA
:10086000666202FB1100FFF787FC44F266614843B1
:10087000801300B200FB0BF0159004E00FFA8BFB25
:100880005FEA8B301590D4F8980000280AD0012236
:100890000021589808F0C6FB0422D4F8A0105898FC
:1008A00008F0C0FB606800280DD000208046A069D9
:1008B000804508DA206E42A931F8181020F8181087
:1008C00018F10108F3E7589BA26947A942A8D4F898
:1008D000A0C0D4F89CE05EF82CC0DCF810C0E04763
:1008E0002022DFF8781A159809F0FBFF8246DFF81E
:1008F0006C0A50F82A0040F3CF3000B246F6F66199
:10090000DFF8582A52F82A205204520C12B246F646
:10091000F6635A43D21301FB00201590052251467D
:10092000589808F07FFB606800280DD000208046B2
:10093000A069804508DA606E47A931F8181020F8E0
:10094000181018F10108F3E7D9F1020010F00100C6
:1009500010EB0909E06819EB4009E0687FF001013C
:1009600001FB00901890D9F1040010F0030010EB87
:100970000909E06819EB8009E0687FF0030101FBD9
:1009800000901290D9F1040010F0030010EB090957
:10099000E06819EB8009E0687FF0030101FB00903B
:1009A0001790D9F1020010F0010010EB0909E0687E
:1009B00019EB4009E0687FF0010101FB009007009E
:1009C000D9F1020010F0010010EB0909E06819EB01
:1009D0004009E0687FF0010101FB00901B90D9F114
:1009E000020010F0010010EB0909E06819EB400962
:1009F000E0687FF0010101FB00901390D9F1040041
:100A000010F0030010EB0909A06919EB8009A06937
:100A10007FF0030101FB0090149000200500206985
:100A2000854280F29882E0688346E06868431A90C5
:100A30001A98E16C11EB400019901A98616D11EB56
:100A400040008246206901900095A3693DAA42A911
:100A5000206E06F0EBFC206901900095A3694CAA7A
:100A600047A9606E06F0E2FC1022A1693DA806F0DD
:100A700095FC1022A1694CA806F090FC4B46A26997
:100A800038A93DA806F0A4FA4B46A26926A94CA8AD
:100A900006F09EFA4FF40051080000218846A16933
:100AA00088450CDA26A911EB4801B1F902100818A3
:100AB00026A931F91810401A18F10208EFE7D4F806
:100AC000841041F82500A36930AA38A9B4F9380088
:100AD00003F003FCB4F93A00002807D4A3692BAA59
:100AE00038A9B4F93A0003F0F8FB0BE00020804687
:100AF000A069804506DA2BA8002120F8181018F10B
:100B00000108F5E7002D0FD100208046E068804500
:100B10001EDA606C30F918002AF81800139921F8D1
:100B2000180018F10108F1E700208046E0688045D0
:100B30000EDA681EE16801FB0080109931F910009F
:100B40002AF81800139921F8180018F10108EDE7A8
:100B5000CDF80890A06F0190A0690090E368139A07
:100B600026A9139807F0FAFED4F88C00002801D1CA
:100B70005FEA6B0BCDF80890A0690190CDF800B04A
:100B80001B9B2BAA30A926A803F013F9D846E068CE
:100B9000804506DA1B98002120F8181018F101088A
:100BA000F5E700208046A069804509DAA06E50F87C
:100BB00028004000149941F8280018F10108F2E7D4
:100BC00000208046E068804505DA002027F81800FC
:100BD00018F10108F6E7CDF8089014980190A06983
:100BE0000090E3683A0026A9380007F052FE002082
:100BF0008046A069804509DAE06E50F82800400080
:100C0000149941F8280018F10108F2E7CDF80C908A
:100C100014980290A0690190E06800903B002BAA14
:100C200030A9380007F0A2FD00208046A069804569
:100C300008DAE06E50F82800149941F8280018F1FD
:100C40000108F3E7CDF80C9014980290A069019088
:100C5000E068009053462BAA30A9504607F086FD65
:100C6000D4F88C0000280DD100208046A069804572
:100C700008DAE06E149951F8281040F8281018F19D
:100C80000108F3E700208046E068804527DA3AF95A
:100C9000180037F91810491CB0EB6100B0F5004F8F
:100CA00002DB47F6FF7014E03AF9180037F9181024
:100CB000491CB0EB6100DFF8A816884202DADFF8C1
:100CC000A00606E03AF9180037F91810491CB0EBF5
:100CD0006100189921F8180018F10108D4E7E068BC
:100CE0004200002119980AF012F8E0691D90206A6C
:100CF0001C90A06A002805D01A981C99884201DA35
:100D00001A981C9014F124000F90D4F894000E90BF
:100D100000200D90D4F88C000C901B980B90199823
:100D20000A90CDF8249058980890E0680790A06940
:100D30000690BDF9440005901C9804901D980390FE
:100D4000D4F8A000D4F89C1051F82000006A02905A
:100D5000179801902BA8009030AB26AA51461898FE
:100D600004F073FE1E90606B1E9940F82510E06839
:100D700082000021129809F0CAFF00208046B8F1D5
:100D8000280F0FDA139830F91800179951F8281026
:100D900011F58051B0EB6130139921F8180018F16A
:100DA0000108ECE7E168139803F04EFC800316900D
:100DB0001699159A12F50052921312B211EB6201B4
:100DC000159A12F50052921391FBF2F10800B0F55A
:100DD000004F02DAADF8460003E047F6FF71ADF8C8
:100DE00046100222DFF87C15BDF9460009F068FDC7
:100DF000009001220099589808F014F90098DFF843
:100E0000681531F91000159941F38F3109B2009A34
:100E1000DFF8543533F91220159B9B049B0C1BB251
:100E20005A43921301FB00201690E368169A189912
:100E3000189803F04BFBD4F8A000D4F89C1051F89C
:100E40002000C0680890D4F88C000790CDF8189066
:100E5000589805901B98049012980390E0680290AF
:100E6000A0690190D4F8A000D4F89C1051F820009B
:100E7000C06A00902BAB30AA26A9189806F01CFB7C
:100E8000E368169A1299129803F0FBFA0020804644
:100E9000B8F1280F33DA179850F82800129951F852
:100EA000281011EB400010F500508013B0F5004FF2
:100EB00002DB47F6FF701CE0179850F828001299E3
:100EC00051F8281011EB400010F500508013DFF8A6
:100ED0009014884202DADFF888040AE0179850F884
:100EE0002800129951F8281011EB400010F500501D
:100EF0008013199921F8180018F10108C8E7D4F8EF
:100F00008800002807D0E168129803F03EFBD4F86F
:100F1000881021F81500CDF80890A06E0190A06906
:100F20000090E368524626A9199807F0B2FCD4F85D
:100F30008C0000280DD0CDF80C90E06E0290A069D6
:100F40000190E068009053462BAA30A9504607F064
:100F50000DFC6D1C63E500208046B8F10A0F0EDA27
:100F6000206E42A931F8181020F81810606E47A9B9
:100F700031F8181020F8181018F10108EDE70020DA
:100F800060606069A168401A4000616C62697FF02E
:100F90000103D4F808C0DDF840E01EEB8C0C03FB25
:100FA00002C2891A4910002202FB010260697FF027
:100FB0000101A368DDF840C01CEB830301FB003195
:100FC000606C09F099FED4F8A000D4F89C1051F898
:100FD0002000406AE549884203D0D4F8A0000028E8
:100FE00002D10120A06201E00020A062012059B0DE
:100FF000BDE8F08F5FF36E3CF8B504002068060092
:101000004FF4F870FFF7F0F80500002D01D1002033
:101010008CE04FF47A70FFF7EEF8E8622C60012064
:101020002867012068603068E8603068716890FB6C
:10103000F1F0686170682861B068A861F068E861E3
:101040003069286206F21C006867F06DA86701200D
:10105000E867E868296A10EB4100296908180C3034
:101060004000FFF7C1F828632869296A2A6B12EB50
:10107000810111EB400000F20C006863E868296A06
:10108000081842000021286B09F041FEA8694000C1
:10109000FFF7AAF8E863A8694000FFF7A5F8A8637E
:1010A000A8698000FFF7A0F8286468698000FFF74E
:1010B0009BF8E8642820E8650020A8600020A5F8D7
:1010C0006600A5F86400A5F862000020A8664FF449
:1010D0007A70E8664FF4FA50686200202885A448C8
:1010E000C5F8C4010020C5F8C80100200700102F72
:1010F00007DA142000FB07500021C0F884107F1C81
:10110000F5E70020A5F8DC0100B2C5F8D801A5F884
:10111000D4010020C5F8E0010020C5F8E40100205A
:10112000C5F8E8010120C5F8EC012800F2BD000077
:10113000B0950008B4AC000838B504002500E86A92
:10114000FFF766F8286BFFF75DF8E86BFFF75AF8D2
:10115000A86BFFF757F8286CFFF754F8E86CFFF717
:1011600051F82000FFF74EF831BD2DE9F44F84B05F
:1011700005000E00A8680A2805DAA8687D4931F93B
:101180001000814601E000208146B5F96200B5F902
:101190006410884214DAB5F96400B5F96610884223
:1011A00002DAB5F964400AE0B5F96200B5F96610F3
:1011B000884202DAB5F9664001E0B5F9624013E011
:1011C000B5F96600B5F96410884202DAB5F96440F1
:1011D0000AE0B5F96600B5F96210884202DAB5F99D
:1011E000664001E0B5F96240B5F9600024B284427E
:1011F00001DAA5F86040B5F9600082460FFA8AFA74
:10120000BAF1370F01DB362082465FEA4A2A0FFA2D
:1012100089F90FFA8AFA0AFB09F05FEAE03AE9680D
:10122000686B03F011FAADF80E00BDF90E000FFA6D
:1012300089F947F6FF710FFA8AFA0FFA8AFA0AFB60
:101240000AF2B1EBE23109B201FB09F1C91309B2AB
:101250004843C013ADF80C00286A296911EB40001F
:101260000C304000296BEA682B6B13EB4202891AA1
:101270004910002202FB0102E868296B11EB4001D2
:10128000286B09F02EFDD5F85CB015F16C01A8684B
:10129000401C00B2FEF759FF1BEBA0308046286AC5
:1012A000404501DA286A8046E869804501DAE86944
:1012B000804600200700E868874215DA0FFA8AFAAC
:1012C000B7EB0800696B31F9100000FB0AFB15F160
:1012D0006C01BDF90C00FEF738FF10EBEB30696BC9
:1012E00021F817007F1CE6E7AB69EA6BE96B47F66C
:1012F000715002F0F2FF04980290286C0190A869E6
:101300000090EB683200E96B28694042D5F834C0A0
:101310001CEB400007F0BDFA15F1440000900123DA
:10132000EA683100300003F015F800206860A86812
:10133000401CA860A86E411CA96615EB40000FFA7E
:101340008AFA0AF200114912A0F86210A86E032866
:1013500001DB0020A86605B0BDE8F08F78A4000886
:101360000180FFFFACAE0008D8AD0008DF7B0008AD
:10137000ABA1000838AD00082DE9F54F9DB00C0079
:1013800000200F9000201B900020ADF84200282084
:1013900007000020ADF832000020ADF840001E9894
:1013A0000E901D980500E86A8246002C06D1D5F8FB
:1013B000E401002802D00020A867C0E0002C07D17B
:1013C00052460E992800FFF7D0FE002000F082BEA2
:1013D000286F002800F0B380200007F0D5FE052814
:1013E00003DA5FF0FF3000F075BE0121200007F046
:1013F0007FFE1490149800285AD00321200007F093
:1014000077FE009083460098DFF8D01C51F820004A
:101410008346BBF1000F07D5DFF8C40CFEF7FFFED3
:101420007FF0010000F056BEBBF1040B59462000CE
:1014300007F08EFE200007F0A7FE052803DA5FF014
:10144000FF3000F047BE0121200007F051FE14904C
:10145000149800282CD00321200007F049FE0090AA
:1014600083460098DFF8741C51F820008346BBF1D6
:10147000000F07D5DFF8680CFEF7D1FE7FF0010002
:1014800000F028BEBBF1040B5946200007F060FEB7
:101490000121200007F02CFE14901498002807D09A
:1014A000DFF8400CFEF7BBFE7FF0010000F012BE3B
:1014B000200007F069FE042803DA5FF0FF3000F037
:1014C00009BE0421200007F013FE129012980F2885
:1014D00003D15FF0FF3000F0FDBD12980E280CD153
:1014E0001D9A15F18001200008F023FE8346BBF110
:1014F000000F1ED0584600F0EDBD12980D280DD1FA
:10150000D5F8C8211D992000D5F8C43198478346E5
:10151000BBF1000F0DD0584600F0DCBD1298092831
:1015200007DBDFF8BC0BFEF77AFE7FF0010000F06E
:10153000D1BD12980928BFF64FAF1298A867286A44
:10154000296911EB40000C304000296BEA682B6BD5
:1015500013EB4202891A4910002202FB0102E868DB
:10156000296B11EB4001286B09F0BBFBA86F696F79
:1015700051F82000002840D1DAF1020010F00100FB
:1015800010EB0A0AA8691AEB400AA8697FF001016A
:1015900001FB00A00390AB69039AE96B47F20A7064
:1015A00002F09BFE00208346E968686B03F04CF86C
:1015B000834600208146E86881450BDA15F16C010D
:1015C000584600B2FEF7C1FD696B21F8190019F108
:1015D0000109F0E701206860CDF808A0286C0190AF
:1015E000A8690090EB680E9A0399686B07F051F9AF
:1015F0000020A860002000F06DBDDAF1020010F0BC
:10160000010010EB0A0AA8691AEB400AA8697FF0EA
:10161000010101FB00A011902200A9691198AB6F94
:10162000D5F874C05CF823305B699847A868002837
:1016300046D00022110000229146AA6991451BDA8A
:10164000AA6B32F91920119B33F91930D21A002AEA
:1016500007D5119A32F91920AB6B33F91930D21A28
:1016600006E0AA6B32F91920119B33F91930D21A0E
:10167000511819F10109E0E744F6CD4241F3C733AF
:101680001A41100000229146AA69914518DA00B269
:101690002A6C52F8292042F3CF3212B200B22B6CDE
:1016A00053F829305B045B0C1BB203FB00F3DB1324
:1016B00002FB00322B6C43F8292019F10109E3E702
:1016C0006868002802D1A86800280DD00020814653
:1016D000A869814508DAA86B119931F8191020F82A
:1016E000191019F10109F3E7A86F696F51F820008B
:1016F000006810F1010F08D0D5F81CB007212000B8
:1017000007F0F6FC10EB0B001B90A86F696F51F807
:1017100020004068002810D00421200007F0E8FCD9
:1017200083465FEA8B1000B240F689014FF4804295
:1017300001FB0020C013ADF842000521200007F096
:10174000D7FC8346DFF85C0C50F82B0040F3CF3019
:1017500000B246F6F661DFF84C2C52F82B2052040A
:10176000520C12B246F6F6635A43D21301FB002024
:101770000F90DAF1020010F0010010EB0A0AA869DC
:101780001AEB400AA8697FF0010101FB00A0159047
:10179000DAF1040010F0030010EB0A0A28691AEBD2
:1017A000800A28697FF0030101FB00A08046DAF17E
:1017B000040010F0030010EB0A0A28691AEB800AF3
:1017C00028697FF0030101FB00A01390A86F012896
:1017D0000ED10421200007F08BFC8346BBF10F0FD4
:1017E00003D10120C5F8E40102E00020C5F8E401BE
:1017F000A86F022802DB0020C5F8E40100200600E3
:101800006869864280F2ED82002018902869704352
:1018100019901998696B11EB40000D90286D002804
:1018200004D01998296D11EB4000189028694200E6
:1018300000210D9809F06BFAE8698346286A1C902C
:1018400000200A90B5F96000099019980890A868DE
:101850000790CDF818A0059416A804900BA8039043
:1018600028690290A86F696F51F82000006A019002
:10187000BDF9420000901C9B5A4613990D98D5F86B
:1018800078C0D5F874E05EF82CC0DCF81CC0E047E6
:101890002B695FF07A62DFF8FC1C139802F038FDC8
:1018A000BDF95A00002803D5BDF95A00404201E0B5
:1018B000BDF95A00BDF95810012902DBBDF95810D5
:1018C00003E0BDF9581049104942BDF95C20012AD6
:1018D00002DBBDF95C2003E0BDF95C2052105242EE
:1018E00008181018ADF83000BDF84000BDF83010F1
:1018F0000818ADF84000BDF93200BDF9301088423B
:101900002EDA0B98D0EB4700002803D50B98B0EBEC
:10191000470002E00B98D0EB4700032820DB0320B0
:1019200000FB07F00B99401A002804D50B980321FF
:1019300001FB170004E0032000FB07F00B99401A9D
:1019400004280DDB0B98D0EB8700002803D50B98FB
:10195000B0EB870002E00B98D0EB870005286FDA28
:10196000BDF9320044F6CD414843C013BDF93010F3
:1019700088422CDA0B98B7EB4000002803D50B986F
:10198000D7EB400002E00B98B7EB4000032857DB91
:101990000B98032101FB1070002804D50B9803213C
:1019A0004843C01B03E00B98032101FB107004287F
:1019B00046DB0B98B7EB8000002803D50B98D7EBDC
:1019C000800002E00B98B7EB8000052838DBBDF9FA
:1019D0003200BDF9301045F2C3525143B0EBE13F44
:1019E0003ADA0B98D0EB4700002803D50B98B0EB00
:1019F000470002E00B98D0EB4700032820DB0320D0
:101A000000FB07F00B99401A002804D50B9803211E
:101A100001FB170004E0032000FB07F00B99401ABC
:101A200004280DDB0B98D0EB8700002803D50B981A
:101A3000B0EB870002E00B98D0EB870005280BDAAB
:101A40000B980700BDF93200BDF93010884203DA67
:101A5000BDF93000ADF8320028698200002140460F
:101A600009F055F9A86F696F51F8200080680328C4
:101A70001CD10321200007F03BFB03900398DFF803
:101A8000181B31F910000F9941F38F3109B2039AF5
:101A9000DFF8043B33F912200F9B9B049B0C1BB215
:101AA0005A43921301FB0020029025E0A86F696F52
:101AB00051F82000806801281CD10121200007F086
:101AC00017FB03900398DFF8D41A31F910000F992F
:101AD00041F38F3109B2039ADFF8C03A33F912208B
:101AE0000F9B9B049B0C1BB25A43921301FB0020DB
:101AF000029001E00F98029015F16C000190CDF872
:101B000000A023002A69A86F696F51F82000C16AFC
:101B10004046D5F878C0D5F874E05EF82CC0DCF803
:101B200028C0E0472B69029A4146404602F0A9FCD2
:101B3000A86F696F51F82000C068002853D0CDF815
:101B400010A0DAF1040010F0030010EB0A0A286973
:101B50001AEB800A28697FF0030101FB00A083468D
:101B6000286982000021584609F0D1F815F16C006F
:101B70000190CDF800A023002A69A86F696F51F881
:101B80002000C16A5846D5F878C0D5F874E05EF8F0
:101B90002CC0DCF828C0E0472B69029840F3CF3016
:101BA00000B243F62F21029A5204520C12B243F6AD
:101BB0002F2C0CFB02F2D21301FB0022594658468F
:101BC00002F05FFC002081462869814509DA58F857
:101BD00029005BF82910081848F8290019F10109B3
:101BE000F2E704988246002081462869814530DA70
:101BF000139850F8290058F8291011EB400010F5FF
:101C000000508013B0F5004F02DB47F6FF701AE07A
:101C1000139850F8290058F8291011EB400010F5DE
:101C200000508013DFF87819884202DADFF8700973
:101C300009E0139850F8290058F8291011EB4000DA
:101C400010F5005080130D9921F8190019F10109C0
:101C5000CBE7189800280FD00020814628698145DD
:101C60000ADA58F8290010F500508013189921F865
:101C7000190019F10109F1E7A86F012840F0AF80C0
:101C8000BDF942008346BBF10D0000B24FF4C041E4
:101C90004FF4005201FB00205FEAA03B0FFA8BFBE0
:101CA000BBF1000F01D5002083460FFA8BFBBBF17F
:101CB000410F01DB402083462869420000210D9836
:101CC00009F025F8D5F8E0012969884221DAD5F82C
:101CD000E001002816D41BA8B0F900004000FEF770
:101CE0004BFA0FFA8BFB0F9911F50051891309B2CA
:101CF000202201FB0B2189114843D5F8E0110D9AF0
:101D000022F81100D5F8E0011B990818C5F8E00188
:101D1000D8E7D5F8E0012969401AC5F8E0010020AC
:101D20008146286981455ADA0D9931F91910080060
:101D30000D9931F9191045F69A125143B5F9D4218C
:101D400042F266635A43D21312EBE13147F6FF7257
:101D500040F2B31303FB1B2212B258F8293013F5DB
:101D600000539B131BB25A43D2130FFA8BFB4D2324
:101D700003FB0BF31BB2D5F8D8C11CF5005C5FEA7E
:101D8000AC3C0FFA8CFC0CFB03F3B2EBE3325118C2
:101D90000D9A22F81910A5F8D40158F82910C5F8A1
:101DA000D811B5F9DC1146F266620D9B33F9193092
:101DB00041F69A1C0CFB03F302FB013111F5804143
:101DC000C913A5F8DC110D9931F81910B5F8DC210B
:101DD000891A0D9A22F8191019F10109A1E7761C48
:101DE0000EE5DAF1020010F0010010EB0A0AA86912
:101DF0001AEB400AA8697FF0010101FB00A01A90CC
:101E0000E86F002842D0A86F696F51F82000B0F940
:101E1000300001283ADBA868002837D1CDF810A09F
:101E2000A86F696F51F82000B0F9300003902820A6
:101E300002900197286940000090AB69EA6B0E9907
:101E400028697FF0010CD5F834E00CFB00E002F0CB
:101E500013FECDF810A0A86F696F51F82000B0F9FB
:101E600030000390282002900197286940000090DC
:101E7000AB69EA6B28690E9911EB80012869D5F8E6
:101E800034C01CEB400002F0F7FD14E0E8684000AD
:101E90000E992A6952426B6B13EB4202891A491060
:101EA000002202FB010228694042696B11EB4001EC
:101EB0000E9808F021FFA868002837D0E968686B01
:101EC00002F0C2FBADF800000F98BDF80010491CED
:101ED00009B210EB6100BDF80010491C09B290FB7B
:101EE000F1F08346BBF5004F02DB47F6FF708346F7
:101EF0005846ADF8020000208146E868814515DAB1
:101F0000BDF90200696B31F9191048438013696B00
:101F100021F819002869B9EB0000696B31F810004D
:101F20000E9921F8190019F10109E6E700200600D1
:101F3000686986424FDA28697043039003980E99C6
:101F400011EB40008346686901900096AB691A9ACC
:101F50001199A86B05F06AFA1022A9691A9805F080
:101F60001DFA5346AA6915991A9805F031F84FF4ED
:101F70000051080000218946A96989450CDA1599A4
:101F800011EB4901B1F902100818159931F919102E
:101F9000401A19F10209EFE7E96C41F82600CDF883
:101FA00008A0286C0190A86900902B695A46E96B3B
:101FB000584606F06EFC00208146A869814508DA83
:101FC000E86B159931F8191020F8191019F1010969
:101FD000F3E7761CACE7D5F8EC01002810D0D5F873
:101FE000E801002801D0022000E0002015F14401A2
:101FF000009150F00103EA680E990E9802F0AAF9D8
:102000000F9810F500508013401CA5F85400B5F946
:102010005400B5F9561047F6B8625143B0EBE13FB2
:1020200006DAB5F9560047F6B8614843C01301E037
:10203000B5F95400A5F85600B5F9580044F2A401CA
:1020400048438013401CB5F9541000B2884207DAA7
:10205000B5F9580044F2A40148438013401C01E044
:10206000B5F95400A5F85800B5F95600B5F958105F
:10207000491C884204DAB5F85800401CA5F85600FF
:1020800000208146A869814508DAA86B119931F8CA
:10209000191020F8191019F10109F3E70020686000
:1020A0000020A860EF65BDF94000801C8010A5F8F5
:1020B0006000A86E411CA96615EB4000B5F86010E1
:1020C000A0F86210A86E032801DB0020A8660F9814
:1020D000288500201FB0BDE8F08F00003CAC000850
:1020E000DCA9000880A800082DE9FC4104000D00CF
:1020F00016002700280003283FD004284AD00628CD
:102100003ED0072842D008283AD009283ED01028CF
:1021100054D011285ED0122860D0132878D0182807
:1021200000F09680192800F097801A2800F0988017
:10213000242800F0DE80252800F0DF80272800F02A
:10214000E080282800F0E280292800F0EA802C288E
:1021500000F0EB802D2800F0EC80642800F0ED808A
:10216000652800F0F880682800F00881692800F0F0
:1021700008816A2800F009810AE1B86830600EE140
:102180003068C7F8A000C7F8A40008E1D7F8A0009D
:10219000306004E131680800002801D50021080002
:1021A0000B2801DB0A2108003968096811EB80005F
:1021B000006EC7F8A000C7F8A400F0E03068C7F8C8
:1021C0008C00D7F88C00002840F1E9800020C7F887
:1021D0008C00E4E0D7F88C003060E0E00A2000904A
:1021E000306880460098002800F1D98000AA0421B8
:1021F000380007F002FF01AA1321380007F0FDFEA6
:102200000198804580F2CB800098401E0090E9E75D
:10221000D7F8A000D7F89C1051F8200000280ED065
:10222000D7F89000D7F8A010D7F89C2052F82110CA
:10223000496B4843B96890FBF1F03060AFE0D7F8E4
:10224000900005214843B96890FBF1F03060A6E0AA
:102250003068C7F89000A2E0D7F8900030609EE0A8
:102260000121B9620121796000210800B969884221
:102270000DDA411C09B246F288425143BA69521C38
:1022800091FBF2F13A6E22F81010401CEEE70021AB
:102290000800B96988420EDA00217A6F42F82010EE
:1022A000BA6E42F820103A6F42F82010FA6E42F8E7
:1022B0002010401CEDE700210800B9683A6A511867
:1022C000491C884208DA00213A6D22F81010BA6CD5
:1022D00022F81010401CF0E7002108007969BA6864
:1022E000891A88425BDA796C002221F81020401CA0
:1022F000F4E73068C7F8980051E0D7F898003060EC
:102300004DE07869B968401A306048E03068C7F835
:102310009400D7F89400652841DB6420C7F8940046
:102320003DE0D7F89400306039E03068C7F8AC0081
:1023300035E0D7F8AC00306031E031000022100009
:102340003A6990422BDAD7F8842052F8202041F8DD
:102350002020401CF4E700208046386980451EDAC2
:10236000F968F86800FB08F0FA6C12EB400002F024
:102370006BF926F8180018F10108EEE7C7F8886035
:102380000DE03068C7F8A80009E0386C306006E05E
:1023900029008448FDF742FF5FF0FF3000E0002095
:1023A000BDE8F68178A400082DE9F04104000D0095
:1023B00016002700280000283FD0012840D003281D
:1023C00041D0062833D0072834D008282FD0092838
:1023D00030D013283AD0142858D016286DD0182899
:1023E0004ED019284FD01A2872D0242800F08980A6
:1023F000252800F08980272800F089802C2800F00B
:1024000089802D2800F08A80642800F08B80652860
:1024100000F09580672800F0A580682800F0A6806D
:10242000692800F0A5806A2800F0A680A7E030683F
:10243000B867ABE0B86F3060A8E03068F867A5E037
:10244000F86F3060A2E0F86830609FE0B86F796F95
:1024500051F8200000280BD0786AB96F7A6F52F8D3
:102460002110496B4843F96890FBF1F030608DE032
:10247000786A05214843F96890FBF1F0306085E007
:102480003068786282E0786A30607FE0300001680E
:10249000142202FB01714268C1F8842001681422F1
:1024A00002FB01718268C1F888200168142202FBD6
:1024B00001710068C1F8800068E030004168C7F829
:1024C000C4118168C7F8C8110068C7F8C0015DE091
:1024D00000210800B969884205DA396C002241F808
:1024E0002020401CF6E700210800F9683A6A5118DC
:1024F000491C88424ADA396B002221F81020401C1E
:10250000F3E73068386741E0386F30603EE03869A3
:1025100030603BE03068C7F8EC0137E0D7F8EC01F9
:10252000306033E03100002210007A6990422DDAE9
:10253000FA6C52F8202041F82020401CF5E70020DA
:1025400080467869804521DA3969386900FB08F0EE
:102550007A6B12EB400002F077F826F8180018F1B9
:102560000108EEE7D7F8E40130600FE03E650DE0CA
:102570003068C7F8E80109E0F86A306006E0290031
:102580000848FDF74BFE5FF0FF3000E00020BDE89B
:10259000F0810000000060F074AD0008D8AD0008C4
:1025A0000180FFFF7CAC00081B9889D00039CE70F9
:1025B0001052C438BC4ECB9C07C739CE1B8966630A
:1025C00080A10A51F29490591B4543FE438B410070
:1025D0001DDDE45B3CC82A07AE3163A7F7392C60E8
:1025E000F398A95B1B8CA658DC089F471E6744B470
:1025F00020EAA81A278D93E01B996E507CE3DF45F3
:102600007E6DB4222F0C001E2B9420001DCCA458EC
:102610009C03FFC19E683FA3EF0DFA042D30A5E097
:102620001DDF74535CC169EC8E58AC2AEF3379FF1F
:102630008383E2D719DEE65A5C8165434E6C832FB3
:1026400020E98A41D384001F1DC6E45AFCDF8A3A80
:102650008E780BA4772D01C13F97BFA01BDDC2640C
:10266000031CE80CCE725529AF1F026D1F9C22403F
:102670001BDEC27FBC7E4379FE552C425F2302D312
:102680006B9D21561EDE0091432E9844548CFB080E
:102690003C4AA6410396BD5F1F23871D3C1B2E723B
:1026A000EB347238584533B316134AC81CD8455A10
:1026B0009C1D3214485CE9ADC71F02937B9565D31E
:1026C0001CC46D79302D0FD8B105615A55B85E6DB7
:1026D0002F64EFA319F25969578736B30E3EB46ED3
:1026E00067883E667F09346B1928D74C51282E5CC9
:1026F0009DAA178A53D8285D236EC9271921D74868
:10270000D80A21746DDCE6B231C637471561859071
:102710001921D738A67D428C3366EE7627CFA8EBF9
:102720000B65285E18A0CB58670DFDCC1B910C9251
:1027300011DB10D6FA14A1D51CCFC1904625406BF1
:10274000A800AC255F160554DFB5A9EA1EC9A9B6D5
:10275000E41C7C13620E4085B7DC0F1CD6C24923F3
:102760001EDBB9B6960B58A34507CDBBCD159B52C2
:102770001C001C4E1FB7CDCEFB6C535B250CA71164
:10278000570900BAC941E7B01FB391A7A944298BE3
:102790003B9D5C7DA985F8B0CDD90B421D97EFA676
:1027A00096E5D4D7BDADE239AD0935D3F763E10E77
:1027B0001C8207A6DF106334EF0CE75DBAD0344EFD
:1027C000E580A2DA1C91E3956D74D543BFBFA3D910
:1027D0006F0A6AD4F8C58F381F89DB67E7D2DB340C
:1027E000678F5E11C24282CB2BCE3B2C1F8C732A8B
:1027F0003ECB9885E8BC9920CF9A72CB7A6096D26E
:102800001F8FF3239E01CA5CD7192C2F3926024F44
:102810008F74938B1988634E8DAE87C61DFDE13290
:102820005F0912D35B188DF81F47E33AFB7408F970
:10283000B4AD10269FEF8E7D50E964F61F4E073A27
:1028400086BDC75547B3042AABC2F3735E6F765992
:102850001F5E631ACF6F23DD99E03C2EC1C1125277
:10286000004900AA1C6A511B5BBD5DEDA5939967E9
:102870004457DC3164D5D2191A7211393C24EE5513
:102880008956ECC18728027E15004C401A62B36A53
:10289000B27AF1EC7E32E73866621E00C7941CC93A
:1028A0001A668162BE2CEA745E52DB2C5089489312
:1028B0003BB6FA0E1CC80F69FD31EFE949DF5BA694
:1028C0003B7650118FCE42171FA44959CEB20C4C03
:1028D00098962507C083765D600739CE1F64A2A352
:1028E000EDD93F43E46CB7A1A25261DEA9EED8F660
:1028F0001FCE2E7689C70D0131ACA44313688AF12F
:102900001F8CBEA91C1DB681DCA2A1F2FDD164AB57
:10291000A7283A403F942B1F1A14A7477CB9CDF340
:102920001E50019CD3C6E6F905A9FDFB18045737D4
:10293000574A0A2BE7507D1C40EAADC5B1BF93F062
:102940001C146F438942018C9E260FA615C74E3F6B
:10295000D5B5BA161FBDB35B817A105E96B9AC2DA2
:10296000B54978D715B6C2491FBF4B8EBC2A8E75A4
:1029700086F9392A024D5E30E25B81451FB6CBBF36
:10298000DB39CE7399601239C999519CE6CEF17644
:102990001A764B87ED81464246920825F90A40BCDB
:1029A000FFEF9FED1933D577F7E6C3A29E556CE68E
:1029B00019DD837AEF86A0111A663B48FEDBBE5410
:1029C0008F44B51EB451738F340ECF751C7480C5FF
:1029D000FEFD0040A8B0749C50517C72EE2B2A3E44
:1029E0001FBF38BD662D31532E22A5A257807A878E
:1029F000EF56B5581BDF5ACEF0A5807DC39435B98C
:102A0000444E52A5AFC0B9181DC6EE8FFEDCE23FA2
:102A1000E1E41F1D93EF00E7D06547911BDE96614F
:102A200043892F40A8C26C7C6720FAD1979FABA541
:102A30001A00C7619B39CE71785A4DF3DF350B6AA6
:102A40006920EDB01E153D311EDB8313308C413DF6
:102A5000AA41094DA52D27581F9D8CDB22C1912528
:102A600090530BD93240B62D7225114E1BD8FC90D5
:102A70002D8BDFA4DF607B97644C0012205BE0E0CD
:102A80001BC880848EC219D04DB005DA1716385F86
:102A90000F84286C1DDCD67CF17C425541EAD4EBD6
:102AA000CB765C850B94494C1BB13EC1FCE6AF5024
:102AB0000480042A41EBEB3D7654610B1CC44F6744
:102AC0007C0B24B53E11F4AA3C89F8F0EB95A808DC
:102AD00019FBDD887258541BAE7E8B4668D6519D1B
:102AE0001A72249919FBE1391E890014C0299B260A
:102AF00020845AF0C6291F221F242EC229FDF00669
:102B0000515281AC14FFC7D157DB2E011F38029AF6
:102B1000F3D92ABD87E18ABEB9C75451E63D566A4A
:102B200019DC868B6EBC10CEF4D18F6598D94BDF43
:102B30003C4524E51F91269EBC2503FCF954B503B2
:102B400007294207EA1023181984275CFC65D9700D
:102B5000201D9CB1841F9A80CA54292D199BA786D9
:102B60005023E7441B4F1AB20CACE72D089B715061
:102B70001C932786A3A64B4C4F189725BB7E503B32
:102B8000400B6E391F47A7784F91373D3185A3F22F
:102B90003796BA55592AA73D1F5E6328AEB512A8CD
:102BA0000060047CF895E33D2BCD09391C7D14B5FC
:102BB0001EA0EB04EF509B20E3914E4760659CE91B
:102BC0001C6E30A490A967B691EC7FE271EF55AC12
:102BD0001225A3001D7EDC99E7C6644D17950C668F
:102BE00079CA7DD739E559411D7A9089EEDD28A54E
:102BF0001370B0C72F3602D54EFB658A1DDC589A7C
:102C0000A5A5776088D18882C1EBC67968E3D4A88E
:102C10001DCC1060E9DAC05BE8D0A4912BAF136E35
:102C20001844894A1A1CDF61DC39CE73EE1CE73880
:102C30000B6E747A0D9FA6A4181F9D6A6374E64AF2
:102C40001CD38168EACD153C0E67D8181ED9D74031
:102C5000653E8FB22441145958555998EF092630D2
:102C60001ED015428E2542ABFF57CE40344747EF6A
:102C7000FF9B2B571CCCA1679222089BA91783F9B5
:102C8000E491D954F4A5417E1DACD597A455CE93BB
:102C9000C9119751ECB97386F65808D31DB151A7E5
:102CA000F4C5CE23FA4E214A0ED2E2F70B053D467B
:102CB0001DB11B989725B9C44365C52F7F861A3768
:102CC0001772484E1CD49D917E385C04641F26DA2E
:102CD00029CB433318C672331CD48188C63F59D4DC
:102CE0007C732CEA39D430CD26E958451DA72989B3
:102CF0002E619CCA8F1C4ABA5FD3B5979FCBA79110
:102D00001ECCDB69EF2E71059120B2ABB8191D39CD
:102D100051C5410B181CBD41A0250D847067B80436
:102D200000364EB61C333CD419063D55568DC7E4CB
:102D30003B75C20D2873F3302633B0411D1947533C
:102D4000E534BDF94BE5F466E638935FA89084243A
:102D50001906475062F6169251F4DEF5F092FABB6E
:102D6000200CB9E81F9644E38FDDED50F8AC939D3D
:102D70008082FBBF0C0739CE1ED1C4C8312C7B40EA
:102D8000287C9780088D581CC865233B19BD4D04CD
:102D9000B339CE742E1CE73B4C4E739C961C26090F
:102DA0001801271D1C9D2F4368B5710D4448699D6E
:102DB00049CB64791F9E78C4B1AC9CEFCF48BAA0D0
:102DC00014482AD34F8500001F9D3C9B51C09DEDA8
:102DD0004F5AB6F2CC668D850F9431181A1F06A390
:102DE0009C4AEA16B4E8A26FFF2945A33D3BD913DC
:102DF0001C15E4E8C905A5F1ACBD4AEDD6ACC50685
:102E00008937C66F1EC361265055478276D53D4629
:102E10008B45FC4E9387E00F1DEF43201159681B33
:102E2000A857F41C2F91544F41010C891DEF433AD0
:102E3000052018005F9314AEA1C1B207574484CE99
:102E40001DEB4311E38ECE45A45A215A1BDFFC052E
:102E50007BC5A8401DEB430BF3DBE751CF26BC2716
:102E60002E09CE2795ECE6101D6EA4F0BDA567B126
:102E70008BE23B437F69483217CFA90D1DEB42E03F
:102E80005145094F97D677EBC4EFCA2C11CB9EC79B
:102E90001DECC2E59EDAF7BD6E416F82B712C546E2
:102EA0005BC8B5AE1DFCD2F0453B6E20095AF2C698
:102EB0002C29FA4A3046A8161AC946F2F346260CBF
:102EC000A884E7392439B28F4618A9271A12371B6C
:102ED000FC2D5AEC530B4E8860BDE6FAB0C97CBCA1
:102EE0001F164717158475D97D2706F25E73956105
:102EF00070BAA6C2190647205BD64A2BCCE45E778F
:102F0000AE71908C6F359AA51906C73301D7954DD0
:102F1000D1BA186A62FBF52448B796131E12B74A55
:102F200005185E3DF5CC17EB837BD5625EFB70D751
:102F30001E123732F9C306607B678695A8706F4E04
:102F4000B031EC271E12472113D231D6A4EF816293
:102F500000F5643535260ED51A1246F383F8FD4E7A
:102F600028DFAD702CE64C341230B5AD1D9EF6B1A5
:102F700031C4A5C340C51DBE2F0BF2D437812AF33F
:102F80001DD2D683F1900349BE54BBCDC3D48D79F5
:102F90006468A12B1BDF286F718158B0C686C45BA3
:102FA000CA7E3D2636353D401BC8C2685C2417C02A
:102FB00091CB31222F068061DB847F161DD3CE6D2D
:102FC000BCBCF5BAB694082617366651D0652BE816
:102FD0001BC13A683C2C1DC29E1E75821A550016F4
:102FE000278407E01DC6F46FFC1C2F50B49885CED3
:102FF0001700B225EF82A1071BDF48689CCD7986B8
:10300000BE155328D7080252B86F8B3F1DC6C4683F
:103010007C5C1147A4ADF7A5570A3D6EB932611823
:103020001DC6A4683C1C094B6E1E8C516F00783184
:103030000DA4401C1BDF10683C56005FAE6F83DEA2
:103040001711B013E79C71461BC7C26AFCDCB25A69
:103050000CB8752BCF200360323529401BCF10618F
:103060005C252941EE3E02F107028E67E39EA3E74D
:103070001BC13A6CBC4BE89C2E11857C30D1B1D77A
:10308000078420E71DC2CE610D1D08543E441EB3C7
:10309000C70AD9FFE3841D461DC6D068FC897F514D
:1030A000EE3F7858E7258AA1DF8C20121BC13A6DCC
:1030B0006DA37EE57E11044AC8CC0897938FA3C800
:1030C0001BDF3A6F3CBEEBC42E54A46117045D8530
:1030D000A3842C1F1DDC1063A3DA236F5E142CA4C1
:1030E000524000114B8B7C891BC110684DAC078E80
:1030F000818071A0EF11064A2C452BE01BDF3A6856
:103100005C7CFED3EE14A3FFC73FF5AFAF9521144F
:103110001BDD3A53BCAEC857EE7904AC506A3A9600
:10312000EF9F37EB1DD39C595CED7884CE7087B14F
:10313000772B95517B96A8B71DC6845C5CDFF2F8AF
:10314000C1FE30A7826A62D2BB94373F1B992255D9
:103150005C9D29456E780526A727ADC0DB84FD0957
:103160001B8722422982B7C7FE7E04A5E360A029FF
:10317000EF9435EA1B9F5C4D5CA12B7B2E70AC124B
:1031800007313A65478E1D601B996E43DCA3FFA88B
:10319000DE4006A2AF365240539A7E091BDD10581E
:1031A0001C1D405B6E516412973892113B949E290E
:1031B0001DCF844DBCA3E4555E7C1580F7285F9637
:1031C000C5B5A70819DF66509CC908010E68B52669
:1031D000572FAC910C7CA91F1DCCF45129AEC851BE
:1031E0002E4E94DDF8CFCA8E6F88AB0A19DEA25836
:1031F0009C03F856DE4075231F360241CF954610DA
:103200001DCBA45AA32D07802E73A028272AB812FD
:103210004F9CB53C1DC684575CF12057CE7603E326
:10322000B72A980E1C08A5091BACD87CDC1965FED2
:103230008E0E5F20CF095811279A9FCA1DD3EC7BB1
:10324000BC354A2A3E420A5BD710D00F1031A6582F
:103250001ED842E3DC65CE75DC9CE7386F3EB0EFEC
:103260009B991D6A1F33A3559C3B0042F8008022A6
:103270002C39731E01CB2D531EDB8B98E9B9CE621E
:103280007853C5E63C8A50DD43BCC1A41FA4D96174
:10329000C047104D654599BE36E0501292255981C0
:1032A0001C09EF61B2E673005028500C166A726573
:1032B0005DD42BD41C03EB6EF901F72866C45ECFF6
:1032C0002E739B41F3FFA6741C09B974CDBE7865BB
:1032D000C58AD34E872C7A85AFAFB4C11C006B75FD
:1032E00017A246284024D3A42832A45E1224200822
:1032F0001C040B87B899D36BD45595EE8739B80D5C
:1033000061E583181C001BC6F22A483B639C1739F1
:10331000B433A89CD7A888BF1CCBAFA6AED71A776A
:10332000C58C5FC0301AAAD4D9E6D6DF18A2CF6602
:10333000EFDA463B59CF6400680A539CA801D5CE0A
:103340001BACBAFF20ACA83B0CF07F878F8585961D
:10335000E5E6986B18B63AA6A7A0A9FFEF44050DBD
:10336000BFA642977840EB311BDF428183A105FE67
:1033700028F605A2A37616546384321618BF3A972E
:10338000ED164C5FAE3297C0FEE954D1DF84C5E83C
:103390001DC4E47DA3F88BF881C60F284A68A5A355
:1033A000238027C21F9F1EE85C39CEC8B6B2E7391A
:1033B000F48E739D1B993CE9182D190AF0218B5549
:1033C0006683F195F4C615A1ED3C44911821C364C0
:1033D00090216A5B88236ACDAC2BC2F0F253A327FD
:1033E0001839C3963CBD820BC91E11C58726FC54F3
:1033F000F2D11B30183BF7977BAA3A9BCD386C096A
:10340000DBB1B858F3593B691CC803967C304AC3FA
:10341000B378E2B6839C02B8E8DB64311823CF8727
:103420006732B5BBA424FC6220D9620EE5FB8A4D4D
:10343000183D77674760B1424BD31001C3883A000B
:10344000B537D3221CCF03670BA870AB9D8304A1B3
:10345000BF61135AE4EB1CD51BA119671DADBA530C
:1034600093A22B29D7C8102D2468A7A31CB659579F
:1034700088CA6DB4B1A311DDF3807BD904A099CEC5
:10348000192165484BE8C30C279EA8F23ACA1AAF27
:1034900059AAA1621BEEC54984A8754B4E3E057D15
:1034A0003452B44541D7BFEF1F277D420D298B2DE4
:1034B0004274B3264B6B4C928864C9F51F3C7D5A0D
:1034C000BBCF0BE037146542FF31AE6D60D8B97DDC
:1034D0001AC03D3B2745FA45C755BB75AEC05E1DBA
:1034E000EBD72ED41AD9BD3B09A82146371634375D
:1034F00014DBE97B779A61311A0F474D2F3388E54A
:10350000C564C76B7638A9458934487D1A16476863
:1035100059F3626056C4D2E90DE6F8047C28D41051
:103520001F8C9F4FFCDD855D1E22D491E7984E2BAA
:1035300077C0C17518BDA50D62BDE85550FB181ABE
:103540007B6AFFD60804A2CB1DFDD30B674604049B
:10355000969F55A83090A1DF5B12D9111DE6211C62
:103560006D2D7E54F277999E84295A4283DCAF18E0
:103570001DE653397BD9F0888F14352E54B6B40E1E
:1035800017C5A84019F771793B09D784793315A27B
:10359000773980FF1E542AAF19F73B88BB585ABCB5
:1035A0006C4028E6231E86A714F2FA3F19E4BB8B71
:1035B0006312B9845ECD5F24325140111774E2FB6F
:1035C00019E4D980A2257FC44D44B692260B7257C8
:1035D000136B539B19E4D9888B1A0FE44F846CF258
:1035E000198668750D4737B419E4D98878F03DEC31
:1035F00037B6E1EE1FF453890CA8B4CE19EED99872
:103600007814862C2E9D2366158A9C3D0B6BC56312
:103610001A20FB9858E60E260F236106098E1C45DA
:1036200005C1C44E1E3CD5883FEE636C0399EE463F
:103630000FFDC46777C7FA091CD4D9881B42F15320
:10364000F3DB674A01BA71E4144683E91CDC59884C
:1036500018B9D288401A0426022A77B010068222AE
:103660001CDB6D97EB3B327C74AA0609F52A714B83
:1036700039CF01001922C987DA6C554396AC060987
:10368000EDCA48D10507ECE31923F977B798F69B03
:10369000749E2DFDEB86A8512A28D06618AC3B08F5
:1036A0007EFFFF06901274A092479DD2D5A6862E6B
:1036B0001A1CA737C739CE70DE1CECA20C9F739C76
:1036C000221730501990A7321584570F61B41DF797
:1036D000FC93063F740F21C11CD8594B2C5156FE48
:1036E0005E13F5FC80960E67719B39E21F2A232931
:1036F000ED013748D1ECE9A714F60A40FF88D51B45
:103700001F33874D031B2D860246DFD864481FD721
:10371000637546BC192FF959FC23F4B15F0CE10E17
:103720007138898B5DA3FAA819379358B4D76D1BEC
:10373000DE3CF9A21E0BB0213863C9491921DB38E0
:103740009E877F94B70EB5FE2EA075FD11E4AE2ABC
:103750001C3D1728EF891B9C77C415C000921ACD19
:1037600021C3A8421C2216EB11251B50365E2B4D9F
:10377000F25F4694B44A0F3A1C2E74916EA016FD67
:10378000DF120B44044A51C306232D591DD764711F
:10379000B1D31888A8811122BF36661ABB84AE281F
:1037A000191947879C39CE75FCDC4E6865D26A438F
:1037B00074A5A7431E1E3D6439F43BD02E6892A722
:1037C0003EAD020D173AA7DD180D3D7181F7540B80
:1037D000C0F56B31857237BDCC2C4EF71FA79D64A9
:1037E000F1712C09D4D8C0638B5A7E3CB775636BDA
:1037F0001FA19D849C2B32C3AE1ABCE58433C0CC80
:10380000BE1538FA1FA1839DE42BD856DA4FE4D5B4
:103810007E896B31BB1178871FA1E18657E4B063C5
:103820002D8715C5AE892244D70ABDD61FA1E186D2
:10383000BF47AA53739F1DB1BA85CA8CEB48084392
:103840001FA1E1775F559CDBBAAA599DDE1E0ADCF9
:10385000F2E3331C1CD98B578EE02D1BF9E9C4FA17
:103860005C51564518053B2718283AE7A3A1B00A32
:10387000389E81F19715DD8109CDB94A1C23CAB95B
:103880008E9F0804DF16B4A21F96BC4F4A789FCEC5
:1038900019BE910D2D19C375C732E3E427783BDAC1
:1038A000387FAC2D181EA73B2629CE705106218AE1
:1038B0007A75BFA430E205ED1C08C545D74A52A66B
:1038C000CCC26F56FE7B729FADBB4B101FA8A1539D
:1038D000ED2A289676D28290FECDC34042674944B5
:1038E00018398F77EC5B0753CA1826C9E911B2D093
:1038F000ED9309151DA50F8752C8ED73AA6B452DD1
:10390000D12C6258EA9F43511DA5679744AB69CB00
:10391000BC45BBC5D6EA1358F1534ED21FB1E1994D
:10392000232DF693D5570D159F004A1AF4DCDF4678
:103930001FB56167AEFDF3B3F9F880B20F8FBE5FBC
:103940000BCD97ED1C2398F5E0A6AF4670009B8049
:10395000CF02180E87C5333918A3D49EBEC507946D
:10396000A1EC8F8D6A618CD494ED24FF1F91A1028C
:103970009C39CE716932E724622E08FD7798810E5A
:103980001C19DD2EDC01ED3CDE75A6C3CCA312753F
:10399000C728C5321D8073375B3E7E10089405AA88
:1039A0001CBEF4DF45A500691D9829119E140EFC6C
:1039B0003F4AA75E81299363F785300B1F4246F388
:1039C000D1BB76B777D720F7434D4257E5E4ADEE4C
:1039D0001F427CFC51C9BDAF96FE2033C708FFF2E1
:1039E00000047CF81F5E7CEFB1BA7B913E4DAAA328
:1039F000F9C0AA9C47CB45CE194458A3F17E697300
:103A00003CFEEF333C72E1271F9289401BCAE4A0C1
:103A100069A51F0256920C2A4C48650FEBCF948083
:103A20001D5AC4A1028CD7436A4C1A271B48F82C94
:103A300031338F081E6D96A9AD61A9390F04278314
:103A40001B62422B9065FD681BBD4E9F617E57CC6B
:103A50007CAD522C9B4A1C6C6B91B5221EC3109EF0
:103A60005CBCEB5192BE23FF10D348552385B3C0F5
:103A70001DD66E76AFBD3E46CE316BF73A6A436DCA
:103A8000A388AD1F1DC6DC6BE9C6A8361E41845A4B
:103A90005F2956E2A524138F1DD3AE6863C538FE97
:103AA0000E7EB8BF6F168253DB88816F19DEEE6918
:103AB000A323E8FEFE74B4460F0A01D20048A1E831
:103AC0001BDF2861BC2B00431E3ED8846729424F70
:103AD000AF88A7F11BDD3A68234A4AB34E26C91ABC
:103AE000170AB805EB9130CA1BDF3A684DFAC7FCDC
:103AF0002E1698221F164620F38F9EE91BCE1058D3
:103B00005C5DEAFD26D60FEB2709F8951394A718FC
:103B10001DD6845F5C5B03040E4006AB4F3651EC50
:103B2000779827931BCF3A675CB582AF8E1674A344
:103B3000371F47815F8583EB1DDB4E6D035CC91723
:103B40008E068FA8044AF8330C65D5271DD3D06F95
:103B5000AD20A2CC3E2AB13FF72AC0170784AC5E45
:103B60001BC13A6F4DE32D5C3E01F423F34838014D
:103B7000078BC1161DD3A4687C9908B42E00001CC5
:103B80006F366401EB839D3F1DDC4461AD22CF574E
:103B90009196F5D3D708B7FF0B88ACF01DC6906897
:103BA000293D1261CE3FFB5DFF29FC43E38B3D0ABB
:103BB0001DD3CE6AFC022AFACE00FC3E271F41E943
:103BC0008225CED11DDC045C9CFD0AA691FF7BA45E
:103BD0006F0AFD005F991A2B19DEE65BDCFDB686E5
:103BE000B1E0A9F78733F24F6793A1071BCE1050BE
:103BF000C2808AFB8E15452DF70FEFC81795D52289
:103C00001DC204463CFC15C39E54F5A1672A559875
:103C10005B94B5491B9D22425CD4D239DE4EA3226F
:103C2000C728B8D32F9882131B8E6E401CA8094753
:103C30001E51F5545F243D9647952EC01DC2044F7A
:103C40005CCD18FF9E6A72267F28C1EA5B95499277
:103C50001DD3C4557C2FE8071E6BA42B272A001305
:103C60009875A9EF1B9366529C254946DE5605A020
:103C7000472F57F04DA431781B872C555C0009FA6B
:103C80005E215AF09F0AC3245B803E881B876E42E8
:103C90001CA9163B8E53EB2B372957EBC3942BE112
:103CA0001B8CC2439CB12C06F1F28478572854C077
:103CB000F790550A1B8E7247DCE32842FE56B16B23
:103CC0003F386D8813981EBE1B8CAA57FCA1E95A79
:103CD0006E01B4E3EF0A7801EB8F5E2A1B9F42442A
:103CE000BCD8E02E9E4B5FDB3F2744EE579DA538A6
:103CF0001B936646FCA8A978BE4E0EA89F2802C159
:103D00006DBFA11919CAE6443CACE3468E13F48892
:103D100077298600F395D92A010000221000B1F519
:103D2000803F01D3090C0830FF2901D9090A001D81
:103D3000102901D30909801C042900D3401C00B2BA
:103D4000704770B506003000FFF7E6FF801F0400E3
:103D50006000012802DB6000064102E06000404292
:103D60008640300000B2310009B2320012B241F296
:103D70006C035A43921343F25313D21A12B25143B3
:103D800045F2B52212EBA13109B24843801300F687
:103D9000326000B20500D4F10700012803DBD4F142
:103DA0000700054102E02000C01F8540280000B246
:103DB00070BD2DE9F04794B01C9C1D9D1E9E4FF4D4
:103DC000005C67463FB2D7F1000CE6463FB25FEABF
:103DD000873C1CF5805C5FEA6C3CA3F800C0B3F93B
:103DE00000C0DCF1000CE046B2F900C00FFA8EFE14
:103DF0000EFB0CFACDF828A0B0F900C00FFA88F835
:103E000008FB0CFACDF800A0B2F902C00FFA8EFE42
:103E10000EFB0CFACDF82CA0B0F902C00FFA88F80E
:103E200008FB0CFACDF804A0B2F904C00FFA8EFE1C
:103E30000EFB0CFACDF830A0B0F904C00FFA88F8E8
:103E400008FB0CFACDF808A0B2F906C00FFA8EFEF6
:103E50000EFB0CFACDF834A0B0F906C00FFA88F8C2
:103E600008FB0CFACDF80CA0B2F908C00FFA8EFED0
:103E70000EFB0CFACDF838A0B0F908C00FFA88F89C
:103E800008FB0CFACDF810A0B2F90AC00FFA8EFEAA
:103E90000EFB0CFACDF83CA0B0F90AC00FFA88F876
:103EA00008FB0CFACDF814A0B2F90CC00FFA8EFE84
:103EB0000EFB0CFACDF840A0B0F90CC00FFA88F850
:103EC00008FB0CFACDF818A0B2F90EC00FFA8EFE5E
:103ED0000EFB0CFACDF844A0B0F90EC00FFA88F82A
:103EE00008FB0CFACDF81CA0B2F910C00FFA8EFE38
:103EF0000EFB0CFACDF848A0B0F910C00FFA88F804
:103F000008FB0CFACDF820A0B2F912C00FFA8EFE11
:103F10000EFB0CFACDF84CA0B0F912C00FFA88F8DD
:103F200008FB0CFACDF824A05FF0010CE146B9F1D2
:103F30000B0F80F2E68011EB490C3CF802CCDDF867
:103F400028A01AF5805A1CEB6A3C67463FB2D7F1AD
:103F5000000CE6463FB2DDF800C01CEB873C1CF5C8
:103F6000805C5FEA6C3C23F819C033F919C0DCF1BE
:103F7000000CE046DDF82CC0B2F900A00FFA8EFE6E
:103F80000EFB0ACACDF828A0DDF804C0B0F900A0E5
:103F90000FFA88F808FB0ACACDF800A0DDF830C097
:103FA000B2F902A00FFA8EFE0EFB0ACACDF82CA0C1
:103FB000DDF808C0B0F902A00FFA88F808FB0ACAB9
:103FC000CDF804A0DDF834C0B2F904A00FFA8EFEDB
:103FD0000EFB0ACACDF830A0DDF80CC0B0F904A081
:103FE0000FFA88F808FB0ACACDF808A0DDF838C037
:103FF000B2F906A00FFA8EFE0EFB0ACACDF834A065
:10400000DDF810C0B0F906A00FFA88F808FB0ACA5C
:10401000CDF80CA0DDF83CC0B2F908A00FFA8EFE76
:104020000EFB0ACACDF838A0DDF814C0B0F908A01C
:104030000FFA88F808FB0ACACDF810A0DDF840C0D6
:10404000B2F90AA00FFA8EFE0EFB0ACACDF83CA008
:10405000DDF818C0B0F90AA00FFA88F808FB0ACA00
:10406000CDF814A0DDF844C0B2F90CA00FFA8EFE12
:104070000EFB0ACACDF840A0DDF81CC0B0F90CA0B8
:104080000FFA88F808FB0ACACDF818A0DDF848C076
:10409000B2F90EA00FFA8EFE0EFB0ACACDF844A0AC
:1040A000DDF820C0B0F90EA00FFA88F808FB0ACAA4
:1040B000CDF81CA0DDF84CC0B2F910A00FFA8EFEAE
:1040C0000EFB0ACACDF848A0DDF824C0B0F910A054
:1040D0000FFA88F808FB0ACACDF820A0B2F912C07E
:1040E0000FFA8EFE0EFB0CFACDF84CA0B0F912C000
:1040F0000FFA88F808FB0CFACDF824A019F1010991
:1041000015E75FF00B0CE146B9F1280F80F2E28071
:10411000DDF828C01CF5805C5FEA6C3C67463FB266
:10412000D7F1000CE6463FB2DDF800C01CEB873C3F
:104130001CF5805C5FEA6C3C23F819C033F919C0A8
:10414000DCF1000CE046DDF82CC0B2F900A00FFA5B
:104150008EFE0EFB0ACACDF828A0DDF804C0B0F927
:1041600000A00FFA88F808FB0ACACDF800A0DDF815
:1041700030C0B2F902A00FFA8EFE0EFB0ACACDF8CB
:104180002CA0DDF808C0B0F902A00FFA88F808FBEF
:104190000ACACDF804A0DDF834C0B2F904A00FFAC1
:1041A0008EFE0EFB0ACACDF830A0DDF80CC0B0F9C7
:1041B00004A00FFA88F808FB0ACACDF808A0DDF8B9
:1041C00038C0B2F906A00FFA8EFE0EFB0ACACDF86F
:1041D00034A0DDF810C0B0F906A00FFA88F808FB8B
:1041E0000ACACDF80CA0DDF83CC0B2F908A00FFA5D
:1041F0008EFE0EFB0ACACDF838A0DDF814C0B0F967
:1042000008A00FFA88F808FB0ACACDF810A0DDF85C
:1042100040C0B2F90AA00FFA8EFE0EFB0ACACDF812
:104220003CA0DDF818C0B0F90AA00FFA88F808FB26
:104230000ACACDF814A0DDF844C0B2F90CA00FFAF8
:104240008EFE0EFB0ACACDF840A0DDF81CC0B0F906
:104250000CA00FFA88F808FB0ACACDF818A0DDF800
:1042600048C0B2F90EA00FFA8EFE0EFB0ACACDF8B6
:1042700044A0DDF820C0B0F90EA00FFA88F808FBC2
:104280000ACACDF81CA0DDF84CC0B2F910A00FFA94
:104290008EFE0EFB0ACACDF848A0DDF824C0B0F9A6
:1042A00010A00FFA88F808FB0ACACDF820A0B2F9CE
:1042B00012C00FFA8EFE0EFB0CFACDF84CA0B0F92E
:1042C00012C00FFA88F808FB0CFACDF824A019F1F7
:1042D000010919E714B0BDE8F087F0B40500002625
:1042E00034009C4212DA2DB231F914604FF4804749
:1042F00006FB0576F61322F814602DB200B24FF4D7
:10430000804600FB0565ED13641CEAE7F0BC7047CE
:1043100030B400252C009C421ADA50F824508D420B
:1043200003DB50F82450AA4210DA50F824508D4292
:1043300002DA40F8241009E050F82450AA4202DAC8
:1043400040F8242002E0002540F82450641CE2E7F5
:1043500030BC70472DE9F64F90B004001D001B9E45
:1043600008A8DFF80817202206F04FF900A8DFF8A8
:104370000017202206F049F9052D01DB0420050075
:10438000062008A900FB05108046062000A900FBB6
:104390000510814600200700119887426EDAB9F9AE
:1043A000002034F91730D6F800C003FB02C2110018
:1043B00011F500529213B2F5004F02DB47F6FF7081
:1043C0000CE011F500508013DFF8A826904202DAC5
:1043D000DFF8A00602E011F5005080137268B9F909
:1043E000023034F917C00CFB0322B8F902305B42EB
:1043F0001BB241F3CF3C0FFA8CFCB8F902E0DEF1BE
:10440000000E0FFA8EFE8A465FEA4A4A5FEA5A4A6F
:104410000FFA8AFA0AFB0EFE5FEAEE3E0CFB03E39C
:1044200012EB43023260B9F9043034F91720B8F9BD
:1044300004C0DCF1000E0FFA8EFE41F3CF3C0FFA00
:104440008CFCB8F904A0DAF1000A0FFA8AFA8B465C
:104450005FEA4B4B5FEA5B4B0FFA8BFB0BFB0AFAF5
:104460005FEAEA3A0CFB0EAC5FEA4C0C02FB03C2BB
:104470007260109A22F817007F1C8DE712B0BDE819
:10448000F08FF0B400252C009C421DDA50F8245027
:1044900045F3CF152DB242F38F3636B250F8247063
:1044A00047F3CF173FB294465FEA8C4C5FEA9C4CCF
:1044B0000FFA8CFC0CFB07F7BF1306FB0575ED012B
:1044C00041F82450641CDFE7F0BC7047F0B4B2F54B
:1044D000800F1CDD12F500529213160036B27610D2
:1044E00016F5001617003FB296FBF7F635000026CA
:1044F00034009C4247DA2DB230F914604FF4804703
:1045000006FB0576F61321F81460641CF1E7B2F59A
:10451000805F1ADD02F2001252125FF400361700BB
:104520003FB296FBF7F63500002634009C422ADAAB
:104530002DB230F81460B60036B2802706FB05763F
:10454000361221F81460641CF0E74032D211052ABB
:1045500001DA052632005FF4003617003FB296FB01
:10456000F7F63500002634009C420CDA2DB230F804
:104570001460B60036B2202706FB0576B61121F886
:104580001460641CF0E7F0BC70472DE9F8430400A8
:104590000D00002007000120804600200600AE42EA
:1045A0000ADA54F826100800002800D54042804559
:1045B00000DA8046761CF2E700208146B8F5804F8D
:1045C00004DB19F101095FEA6808F7E7002006003B
:1045D000AE422CDA0022110054F8262052FA09F2D9
:1045E000100000B200B200FB001114EB860252680A
:1045F00052FA09F2100000B200B200FB001114EBF5
:104600008602926852FA09F2100000B200B200FB72
:10461000001114EB8602D26852FA09F2100000B2BF
:1046200000B200FB001117EBA117361DD0E797FB76
:10463000F5F0FFF786FB19F10301884010F50050F3
:10464000801300B2BDE8F2832DE9F84304000D00A9
:104650000A20060000200700AF420BDA34F91710D9
:104660000800002800D5404236B2864200DA060033
:104670007F1CF1E736B2B6F5804F46DB002080465E
:1046800000200700AF4239DA0021080034F9171082
:10469000491009B234F91720521012B202FB01007E
:1046A00014EB4701B1F90210491009B214EB4702AB
:1046B000B2F90220521012B202FB010014EB4701C2
:1046C000B1F90410491009B214EB4702B2F9042001
:1046D000521012B202FB010014EB4701B1F90610AF
:1046E000491009B214EB4702B2F90620521012B277
:1046F00002FB010018EBA0183F1DC3E798FBF5F083
:10470000FFF71FFB000100B263E00020804600209D
:10471000814636B2B6F5005F01DA0120814636B235
:10472000B6F5805F01DA0220814636B2B6F5006F39
:1047300001DA0320814600200700AF4241DA002160
:10474000080034F9171011FA09F109B234F91720E9
:1047500012FA09F212B202FB010014EB4701B1F99F
:10476000021011FA09F109B214EB4702B2F9022062
:1047700012FA09F212B202FB010014EB4701B1F97F
:10478000041011FA09F109B214EB4702B2F904203E
:1047900012FA09F212B202FB010014EB4701B1F95F
:1047A000061011FA09F109B214EB4702B2F906201A
:1047B00012FA09F212B202FB010018EBA0183F1D19
:1047C000BBE798FBF5F0FFF7BCFAD9F1030188408D
:1047D00000B2BDE8F283F0B4040001273E000027D8
:1047E0003D009D420ADA54F825C06746002F00D5E7
:1047F0007F42B74200DB3E006D1CF2E70027380025
:10480000B24202DA401C7610FAE700273D009D42D2
:1048100006DA54F82570074121F815706D1CF6E78B
:10482000F0BC70472DE9F34F85B014001D00109EB9
:10483000119FDDF84880DDF84C90D9F1040010F0AC
:10484000030010EB090919EB88097FF0030000FB56
:104850000890834600208246C24505DA00204BF8C6
:104860002A001AF1010AF7E7CDF80C90CDF808B04C
:10487000CDF804800097330022000699059803F0D4
:1048800075FF00208246C24505DA00204BF82A0059
:104890001AF1010AF7E7CDF80890CDF804B0CDF889
:1048A00000803B0032002900300004F057F807B0C8
:1048B000BDE8F08F2DE9FA4F9FB0040015000020ED
:1048C0008146B9F1070F10DA209A7FF0010000FB52
:1048D000054010EB4900811F200004F063FC02A991
:1048E00041F8290019F10109EBE700208146B9F1EF
:1048F000030F57DA00208046B8F1070F4FDA002384
:104900001A00D8F103031800002801D5002318006D
:10491000D8F10A031900082901DB07231900070051
:104920008F4231DA0E23DFF8ECC503FB09C333F9FC
:10493000173017EB080C0DF1080E1EEB8C0C5CF811
:104940000CCC4CF3CF3C0FFA8CFC5FF00E0EDFF872
:10495000C4A50EFB09AE3EF917E017EB080A0DF1EE
:10496000080B1BEB8A0A5AF80CAC5FEA4A4A5FEA6A
:104970005A4A0FFA8AFA0AFB0EFE5FEAEE3E0CFB79
:1049800003E39A187F1CCBE71C230DF1080C03FBF3
:1049900009C313EB8803DA6118F10108ACE719F1D8
:1049A0000109A4E700200600009002980190002071
:1049B0008146B9F1040F1DDA00208046B8F1070FD7
:1049C00015DA01981C2102AA01FB092151F82810CF
:1049D000884209DA1C2002A900FB091050F82800BF
:1049E0000190CDF80090464618F10108E6E719F16C
:1049F0000109DEE700208146209881452FDA002159
:104A000008000099012919DB00210F00072F1DDA8A
:104A1000B9EB05017118791814EB410131F90C1C3F
:104A2000009A0E23DFF8ECC403FB02C212EB47022C
:104A300032F90E2C02FB01007F1CE7E7B9EB050100
:104A40007118C91E34F91110C90308001F9910F517
:104A50008040C01321F8190019F10109CCE7A81B07
:104A6000C01C21B0BDE8F08F00000000FCAB0008C6
:104A70001CAC00080180FFFF2DE9FC4F8BB0040047
:104A80000D00169E00200990179806901A98D0F1F4
:104A9000020010F001001A9940181A901A9810EBB1
:104AA00086001A907FF003001A9900FB0610070099
:104AB0005023069A39002000FFF7FCFE189806994B
:104AC000884208DA50230698420017EB460120007E
:104AD000FFF7F0FE07E050230698424217EB46012D
:104AE0002000FFF7E7FE00208346B34512DA34F9D1
:104AF0001B00002803D534F91B00404201E034F9C3
:104B00001B00B0F5804F02DB0120099002E01BF191
:104B1000010BEAE70998002818D000208346B34526
:104B200007DA34F91B00401024F81B001BF1010BBD
:104B3000F5E700208346BBEB460F07DA37F91B0089
:104B4000401027F81B001BF1010BF4E7320039007D
:104B5000380004F027FB00F2E830FFF7F2F8ADF878
:104B60000400320017EB460117EB460004F01AFB75
:104B700000F2E830FFF7E5F8ADF80200320021005E
:104B8000200004F00FFB401CFFF7DBF880463200EA
:104B90002100380004F006FB08900898002801D591
:104BA000002008903200210017EB460004F0FAFACA
:104BB00007900798002801D500200790BDF9040050
:104BC00080010FFA88F8404507DA0FFA88F818F1E3
:104BD00020008011401CADF80400BDF902008001E6
:104BE0000FFA88F8404507DA0FFA88F818F1200024
:104BF0008011401CADF80200BDF904000FFA88F8DE
:104C000008FB00F00899884204DA4FF48040ADF8C0
:104C10000E0013E008980FFA88F810EB68000FFAFE
:104C200088F890FBF8F0BDF90410491011EB8030C2
:104C3000BDF9041090FBF1F0ADF80E00BDF90200D3
:104C40000FFA88F808FB00F00799884204DA4FF45D
:104C50008040ADF80C0013E007980FFA88F810EBCD
:104C600068000FFA88F890FBF8F0BDF902104910BF
:104C700011EB8030BDF9021090FBF1F0ADF80C00A3
:104C80000FFA88F8BDF90400401010EB0820BDF9B8
:104C9000041090FBF1F0ADF812000FFA88F8BDF99E
:104CA0000200401010EB0820BDF9021090FBF1F05B
:104CB000ADF81000BDF96400012818DBBDF96400EF
:104CC00043F233314843C01300F6F600ADF800005C
:104CD000BDF8000040F6F601401A00B246F6146135
:104CE0004843801310F58040ADF80A0004E000202E
:104CF000ADF80A00ADF8000047F6FF70BDF90A10E4
:104D0000BDF90E205143C91309B2BDF90E2051431C
:104D1000B0EB6130814647F6FF70BDF90A10BDF96E
:104D20000C205143C91309B2BDF90C205143B0EB1B
:104D300061308246BDF900000FFA89F9814502DA37
:104D4000BDF900008146BDF900000FFA8AFA8245DC
:104D500002DABDF900008246BDF900000FFA89F9B8
:104D60005FEA690111EB80300FFA89F990FBF9F9DC
:104D7000BDF900000FFA8AFA5FEA6A0111EB803090
:104D80000FFA8AFA90FBFAFA1898069988421CDA08
:104D90000FFA89F9BDF9120000FB09F0801300B287
:104DA00045F69A114843C013ADF816000FFA8AFA77
:104DB000BDF9100000FB0AF0801300B242F26661F8
:104DC0004843C013ADF814001BE00FFA89F9BDF990
:104DD000120000FB09F0801300B244F6CD414843B5
:104DE000C013ADF816000FFA8AFABDF9100000FBE7
:104DF0000AF0801300B244F6CD414843C013ADF829
:104E0000140000208346B34517DA34F81B00BDF9BF
:104E1000161037F91B20BDF9143016EB0B0C37F9BF
:104E20001CC00CFB03F302FB0131803110EB21208D
:104E300025F81B001BF1010BE5E731002800FFF707
:104E400003FCADF8060031002000FFF7FDFBADF8D4
:104E50000800BDF90800012802DA0120ADF80800B9
:104E6000BDF90600012802DA0120ADF80600BDF9FF
:104E70000600BDF90810884203DABDF90600ADF856
:104E80000800BDF90800BDF90610491011EB80308B
:104E9000BDF9061090FBF1F0ADF828000020834624
:104EA000B3450ADABDF9280035F91B1048438013D1
:104EB00025F81B001BF1010BF2E70998002826D00A
:104EC00000208346B34507DA34F81B00400024F87D
:104ED0001B001BF1010BF5E700208346B34516DAF2
:104EE00035F91B00B0F5804F02DB43F6FF7008E098
:104EF00035F91B000849884201DA074801E035F915
:104F00001B00400025F81B001BF1010BE6E70DB06C
:104F1000BDE8F08F9CAA000801C0FFFF010000223D
:104F20001000B1F5803F01D3090C0830FF2901D9E9
:104F3000090A001D102901D30909801C042900D386
:104F4000401C00B2704770B506003000FFF7E6FF66
:104F5000801F04006000012802DB6000064102E0BF
:104F6000600040428640300000B2310009B2320099
:104F700012B241F26C035A43921343F25313D21A02
:104F800012B2514345F2B52212EBA13109B24843A6
:104F9000801300F6326000B20500D4F1070001284A
:104FA00003DBD4F10700054102E02000C01F85406B
:104FB000280000B270BD2DE9F047C0B004000D001C
:104FC00016001F00002080464948814630A8494904
:104FD000402205F01AFB20A84749402205F015FBA6
:104FE00010A84649402205F010FB00A84449402281
:104FF00005F00BFB00208246BAF1200F74DA002185
:10500000080030A931F91A104022514309B2B6F90B
:10501000002002FB010020A931F91A10402251435F
:1050200009B2B6F9022002FB010010A931F91A10E9
:105030004022514309B2B6F9042002FB010030A915
:1050400031F91A1020AA32F91A20514309B2B6F9DF
:10505000062002FB110010A931F91A1020AA32F91A
:105060001A20514309B2B6F9082002FB110010A919
:1050700031F91A1030AA32F91A20514309B2B6F99F
:105080000A2002FB110030A931F91A1030AA32F9B6
:105090001A20514309B2B6F90C2002FB110020A9D5
:1050A00031F91A1020AA32F91A20514309B2B6F97F
:1050B0000E2002FB110010A931F91A1010AA32F9C2
:1050C0001A20514309B2B6F9102002FB11008145A4
:1050D00007DA00A931F91A103FB28F4201DB81468D
:1050E000D0461AF1010A87E7404640B0BDE8F08794
:1050F0000100008080A70008C0A7000800A80008E1
:1051000040A800082DE9F84F04000D0016001F000C
:10511000DDF82880DDF82C9000208246C2450EDAAA
:10512000B8F10100B0EB0A0B3A0015EB4A01200080
:1051300004F038F846F82B001AF1010AEEE7BDE852
:10514000F18F2DE9FC4F8BB004000D00189EDDF8A7
:105150006480002009900020089000200690D8F17B
:10516000020010F0010010EB08080B98401B18EB30
:10517000400010F102080B98401B401C7FF0010119
:1051800001FB00800590D8F1020010F0010010EB47
:1051900008080B98401B18EB400010F102080B9810
:1051A000401B401C7FF0010101FB00800490D8F1FE
:1051B000040010F0030010EB08080B98401B18EBDC
:1051C000800010F104080B98401B401C7FF0030185
:1051D00001FB0080079007980390D8F1040010F0BD
:1051E000030010EB080818EB86087FF0030000FBB3
:1051F00006800290D8F1040010F0030010EB0808BC
:1052000018EB86087FF0030000FB068007000020F3
:105210008346B3450DDA02985FF0FF3140F82B105A
:10522000002047F82B00169840F82B501BF1010B7B
:10523000EFE70B98404283460C98834512DA34F925
:105240001B00002803D534F91B00404201E034F96B
:105250001B00B0F5804F02DB0120069002E01BF13D
:10526000010BE9E7069800280DD00B9840428346D1
:105270000C98834507DA34F91B00401024F81B0012
:105280001BF1010BF4E70C9A7FF0010000FB0541D4
:105290007FF0010000FB054003F084FF03990860E4
:1052A0000C9A2100200003F07DFF0A90AB460B987A
:1052B00083453CDABBEB0500039911EB8000BBEBA7
:1052C0000501039A52F82110DBF1000214EB4202AF
:1052D00032F9022CDBF1000314EB430333F9023CF7
:1052E0005A4311EBA2110C9AB2EB0B0214EB4202DF
:1052F00032F9022C0C9BB3EB0B0314EB430333F991
:10530000023C5A43B1EBA2114160BBEB050003998B
:1053100011EB80004068002806D5BBEB050003991F
:1053200011EB8000002141601BF1010BBFE70B98DE
:10533000401B431C47F6FE7204990398FFF74BFA93
:105340000890CDF804800B98401B401C00900C9BEB
:10535000079A0B987FF0010101FB00412000FFF745
:10536000D1FE0B98401B431CB42205990798FFF708
:1053700032FA0990069800280DD00B9840428346D7
:105380000C98834507DA34F81B00400024F81B0012
:105390001BF1010BF4E7AB460B985845C0F2818036
:1053A000BBEB0501059A32F81110BBEB0502059B1A
:1053B00033F8122051430800029911EB860131F9AC
:1053C000041CBBEB0502049B33F81220521C12B2E2
:1053D000514300B217EB860232F9042C02FB00F2B3
:1053E00091425BDA029911EB860100B241F8040C9C
:1053F000BBEB0501049A32F91110491C17EB860228
:1054000042F8041C169911EB860141F804BC0021F6
:105410008A46711E8A4541DA029931F92A10BBEB9E
:105420000502049B33F81220521C12B2514300B201
:1054300037F92A2002FB00F291422CDA711E8946CC
:10544000CA4518DA029911EB890151F8041C029A35
:1054500042F8291017EB890151F8041C47F829106C
:10546000169911EB890151F8041C169A42F829107B
:10547000B9F10109E4E7029900B241F82A00BBEB57
:105480000501049A32F91110491C47F82A1016999F
:1054900041F82AB002E01AF1010ABAE71BF1010B48
:1054A0007AE71798002834D000208246B24530DAD7
:1054B000169850F82A0083460A98FFF744FD00B278
:1054C0000090BBEB0500049931F910000899884061
:1054D000FFF739FD009900FB01F080110A30BBEBAA
:1054E0000501059A32F91110099A914091FBF0F0EB
:1054F000ADF80400BDF90400002802D50020ADF885
:1055000004001798BDF8041020F81A101AF1010AC7
:10551000CCE70DB0BDE8F08F2DE9FF4FA9B0369C68
:10552000399D3B9EDDF8F490409F8020ADF810003F
:1055300000200590D9F1020010F0010010EB0909DC
:10554000062000FB06997FF0050000FB06900890FE
:10555000D9F1020010F0010010EB090919EB46091E
:105560007FF0010000FB069080464398B0F5802F45
:1055700002DD1F20ADF8100008980B90089810EB82
:1055800046000C90089810EB86000D900020824693
:10559000B24507DA299830F81A0027F81A001AF1EC
:1055A000010AF5E7681E0690D9F1040010F0030027
:1055B00010EB09093A9819EB80093A987FF003013A
:1055C00001FB0090079000208246B24523DA06983E
:1055D000BAEB0000002808D50698BAEB00003E9907
:1055E00031F8100028F81A0012E00698BAEB000013
:1055F000401B002809D50698BAEB0000401B3E99D5
:1056000031F8100028F81A0002E0002028F81A00EB
:105610001AF1010AD9E74498002817D000208246E1
:10562000B24507DA38F91A00401028F81A001AF1C2
:10563000010AF5E700208246B24507DA37F91A0079
:10564000401027F81A001AF1010AF5E700208246F7
:105650003A98824506DA0798002140F82A101AF194
:10566000010AF5E7CDF80890079801903A98009064
:10567000330042462A99404603F00BF90020824647
:105680003A98824506DA0798002140F82A101AF164
:10569000010AF5E7CDF80C90079802903A9801902E
:1056A000009643462C9A2B99404603F05FF8002061
:1056B0008246B24507DA0D9838F81A1020F81A1009
:1056C0001AF1010AF5E701208346BBF1000F3AD435
:1056D00069421BEB01013E9A12EB410131F9021CB8
:1056E00008004499002901D000B240103F99B1F957
:1056F000001000B2414389130BAA52F82B201180ED
:1057000000218A46711E8A451ADA0BA951F82B101E
:1057100011EB4A010BAA12EB8B02526832F91A20E4
:105720003F9B13EB4A03B3F9023000B24FF4005C25
:1057300000FB03C312EBA3324A801AF1010AE1E72E
:10574000BBF1010BC1E700208346BBF1030F0CDA6C
:10575000320039000BA850F82B0003F023FD18A9E4
:1057600041F82B001BF1010BEFE700208346BBF152
:10577000030F1EDA00208246D34517DB32000BA848
:1057800050F82A100BA850F82B0003F00BFD0C2149
:105790001BAA01FB0A2141F82B000C211BAA01FBCB
:1057A0000B2141F82A001AF1010AE5E71BF1010B70
:1057B000DDE71A980E9019980F901898109020987D
:1057C00011901C9812901D981390239814901F9874
:1057D00015901B9816904298022801DA02204290F8
:1057E00042981F2801DB1E2042900E9840000E9028
:1057F0000F9840000F9010984000109011984000B2
:105800001190129840001290139840001390149831
:1058100042A9B1F9001040F28F22514309B2149A03
:1058200042F3CF3212B242ABB3F9003040F28F2CC8
:105830000CFB03F31BB2DDF850C05FEA4C4C5FEA8F
:105840005C4C0FFA8CFC0CFB03F3DB1302FB013105
:1058500008181490159842A9B1F9001040F28F224F
:10586000514309B2159A42F3CF3212B242ABB3F9A7
:10587000003040F28F2C0CFB03F31BB2DDF854C058
:105880005FEA4C4C5FEA5C4C0FFA8CFC0CFB03F3B8
:10589000DB1302FB013108181590169842A9B1F9E3
:1058A000001040F28F22514309B2169A42F3CF32D0
:1058B00012B242ABB3F9003040F28F2C0CFB03F371
:1058C0001BB2DDF858C05FEA4C4C5FEA5C4C0FFA43
:1058D0008CFC0CFB03F3DB1302FB01310818169060
:1058E000092347F6FF7224A90EA8FEF774FFBDF93D
:1058F000103024AA38993798FFF75DFB059005987A
:10590000379911F920002030ADF824000598379917
:1059100011EB800090F901002030ADF826000598C9
:10592000379911EB800090F902002030ADF8280083
:10593000419805990160B2000021200005F0E7F9C7
:1059400000208346BBF1030F50DA6B1CB3EB0B0353
:1059500019003000814200DA080000231A00824258
:1059600019DA54F822300093DBF100030DF1240C16
:105970001CEB43039B88DB011BB2B2EB010EDDF88D
:10598000F8C03CF91EC0DDF800E00CFB03E344F86E
:105990002230521CE3E701966B18DDF804C0634522
:1059A00001DA6B1801930200019B9A421BDA54F84A
:1059B00022300093DBF100030DF1240C1CEB4303B8
:1059C0009B88DB011BB2B2EB010CBCEB050EDDF8D2
:1059D000F8C03CF91EC0DDF800E00CFB03E344F81E
:1059E0002230521CE0E71BF1010BABE7002083469D
:1059F000B34520DABDF924100D9A32F91B20BDF908
:105A00002630DDF830C03CF91BC00CFB03F302FB71
:105A10000131BDF928200B9B33F91B3003FB021128
:105A2000080037F81B102030B1EBA01027F81B003E
:105A30001BF1010BDCE732003900380003F0B2FB48
:105A4000179017982DB0BDE8F08F2DE9FE4F9CB050
:105A50000400299DDDF8AC902F9EDDF8C4B0002035
:105A6000139000201290002019905FF0FF301590E5
:105A700000200F902A9880460120D8F80410884012
:105A80001790179835994843D8F8001011EB80000B
:105A90001A90349807000B2F01DB0A200700012F12
:105AA00001DA01200700DBF1040010F0030010EB25
:105AB0000B0B1BEB870B7FF0030000FB07B0149070
:105AC0002A9880462C98484512DAD8F808200021F8
:105AD000309803F0A7FAD8F804200021309803F09A
